:020000040800F2
:1000000000C0002039890008077100080971000844
:100010000B7100080D7100080F710008000000004E
:100020000000000000000000000000001171000846
:100030001371000800000000157100081771000816
:100040008189000881890008818900088189000868
:100050008189000881890008818900088189000858
:100060008189000881890008818900086567000886
:100070002571000835710008818900088189000810
:100080008189000881890008818900088189000828
:100090008189000881890008818900088189000818
:1000A0008189000881890008818900088189000808
:1000B00081890008818900088189000881890008F8
:1000C00081890008818900088189000881890008E8
:1000D000818900088189000881890008457100082C
:1000E00081890008818900088189000881890008C8
:1000F00081890008818900088189000881890008B8
:1001000081890008818900088189000881890008A7
:100110008189000881890008818900088189000897
:100120008189000881890008818900088189000887
:1001300000000000000000000000000000000000BF
:1001400000000000000000000000000000000000AF
:10015000000000000000000000000000000000009F
:10016000000000000000000000000000000000008F
:10017000000000000000000000000000000000007F
:10018000000000000000000000000000000000006F
:10019000000000000000000000000000000000005F
:1001A000000000000000000000000000000000004F
:1001B000000000000000000000000000000000003F
:1001C000000000000000000000000000000000002F
:1001D000000000000000000000000000000000001F
:0401E0005FF8E0F1F3
:1001E4000348044B834202D0034B03B118477047C2
:1001F400E0010020E0010020000000000548064B5B
:100204001B1AD90F01EBA301491002D0034B03B110
:1002140018477047E0010020E001002000000000C2
:1002240010B5064C237843B9FFF7DAFF044B13B13A
:100234000448AFF300800123237010BDE0010020C7
:10024400000000008489000808B5044B1BB1044970
:100254000448AFF30080BDE80840CFE70000000089
:10026400E4010020848900080CB470B50C46002514
:100274006FF000469CB00A4A20AB059253F8042B59
:1002840002A9CDE901341B9504960796069400F063
:1002940041F9029B1D701CB0BDE8704002B070476C
:1002A4000802FFFF0EB470B504466FF00046002547
:1002B4009DB00B4A21AB0B49106853F8042B0591F0
:1002C40002A9CDE90134049607961B95069400F023
:1002D40021F9029B1D701DB0BDE8704003B070474A
:1002E400000000200802FFFF20F0030110F00300CB
:1002F400C0F1000051F8043B00F1040C4FEACC0CAF
:100304006FF000021CBF22FA0CF213434FF0010CF1
:100314004CEA0C2C4CEA0C4CA3EB0C0222EA030230
:1003240012EACC1204BF51F8043B0430F4D0C2F1F9
:10033400000102EA0102B2FA82F2C2F11F0200EBEA
:10034400D20070472DE9F0471D468F680C46AF4236
:1003540016460B6836D8B1F90CC01CF4906F0ED158
:100364003D46184631462A4600F068FB0020A36843
:10037400DF1B2368A7602B442360BDE8F0874A692C
:10038400096902EB42025F1A02EBD2726B1C521033
:100394003B44934292BF914699461A461CF4806F9F
:1003A400804611D0114600F06BFA824600B33A46FB
:1003B400216900F0C1FBA38923F4906343F0800317
:1003C400A38105E02F46CCE700F02CFC824658B10F
:1003D4000AEB0703A9EB0707A760C4F810A02F4690
:1003E400C4F814902360BCE74046216900F0C8FAC1
:1003F4000C22A3894FF0FF3043F04003C8F80020DB
:10040400A381BAE72DE9F04F936883B09246176849
:100414000190002B76D04FF0000B0C465D468B68A4
:100424000A6848E0B4F90CC01CF4906F2FD0D4E9EA
:100434000403A2EB000803EB430202EBD27208F1BF
:10044400010152102944914292BF914689460A46BD
:100454001CF4806F39D01146019800F011FA064659
:1004640000283DD04246216900F066FBA28922F4AF
:10047400906242F08002A28106EB0800A9EB080218
:100484002661A8462E46A2602060C4F81490324625
:10049400594600F0D3FADAF80810A3682268A3EBEF
:1004A40008033244491BA3602260CAF8081049B308
:1004B400D7E900B5083798461046002DF8D09D427C
:1004C4001E46AFD2A8462E46E1E70146019800F049
:1004D400A9FB06460028CFD10198216900F050FA03
:1004E4000C21A389019D43F0400329600022A381CC
:1004F4004FF0FF300023CAF80820CAF8043003B0D4
:10050400BDE8F08F00200023CAF8043003B0BDE832
:10051400F08F00BF2DE9F04F1C468B8989461D06DC
:10052400824693469DB003D50B69002B00F0EE8004
:10053400002343F2200209939BF8003001277C4EEC
:100544000394ADF82920002B71D05D4603E015F823
:10055400013F002B73D0252BF9D1B5EB0B0471D1DE
:100564002A78002A63D000234FF0FF320135CDE909
:100574000523049307938DF853301A9306E0254618
:10058400049B801B07FA00F0034304932C460522C6
:1005940014F8011B304600F04FFDA3460028EED1AD
:1005A400049BD90644BF20228DF853201A0748BF64
:1005B4002B22297848BF8DF853202A294FD1039A3A
:1005C40011680432002903927BDB079169782E2994
:1005D4005BD0584C0322204600F02EFD38B1402257
:1005E400049B001B824013430BF1010B04931BF883
:1005F400011B062250488DF8281000F01DFD00282C
:1006040065D04E4B002B55D003A900914A46504665
:100614004B4B04A9AFF300808046B8F1FF3F06D0EE
:10062400099B434409939BF80030002B8DD1B9F802
:100634000C305B0679D409981DB0BDE8F08FB5EB9A
:100644000B04F4D023465A4649465046FFF77AFE37
:100654000130ECD0099B2A782344099381E7A1F166
:100664003002092A88BFAB46B1D8079B00E00134A9
:10067400217803EB830302EB4303A1F13002092A3F
:10068400F5D92E29A3460793A3D19BF801102A2953
:1006940027D1039B0BF102001A680433002A039349
:1006A400B8BF4FF0FF339BF8021005928346B8BFE2
:1006B40005938EE7039B073323F007030833039363
:1006C400AEE7494243F00203079104937EE703A98E
:1006D40000914A4650461A4B04A900F067FB804635
:1006E4009BE70023A1F13002092A0BF1010B0593CA
:1006F4003FF66FAF1BF8011F03EB830302EB4303C9
:10070400A1F13002092AF5D9059362E7402100F0EE
:10071400B7F8C9F80000C9F8100018B14023C9F8A7
:10072400143005E70C23CAF800304FF0FF3083E79C
:100734004C8A0008548A0008588A00080000000007
:100744004903000870B50F4B0F4DAB42A3EB0506F0
:1007540007D00024B61055F8043B01349847A6424C
:10076400F9D808F00DF9094D094B5E1BAB424FEA6D
:10077400A60606D0002455F8043B01349847A64247
:10078400F9D870BD409200084092000840920008D9
:100794004492000870B5860747D0541E002A3ED004
:1007A4000346CAB201E0013C39D303F8012B9D078B
:1007B400F9D1032C2CD9CDB205EB05250F2C1A4603
:1007C40005EB054534D9A4F1100C2CF00F0603F108
:1007D400100EB6444FEA1C1CC2E90055C2E902558A
:1007E40010327245F8D10CF1010214F00C0F03EB36
:1007F400021204F00F0C13D0ACF1040323F0030332
:100804000433134442F8045B9342FBD10CF0030419
:100814002CB1C9B21C4403F8011BA342FBD170BD27
:1008240064461346002CF4D1F9E703461446C0E7A6
:10083400A446E1E770B5114E054633680C46BBB1DA
:100844002146284600F02CFE431C01460CD0C41C53
:1008540024F00304A04205D02846611A00F020FECB
:10086400013001D0204670BD4FF0FF34204670BDEA
:10087400194600F015FE3060E2E700BFFC010020DD
:100884002DE9F843CD1C25F0030508350C2D38BFA0
:100894000C25002D064618DBA94216D8DFF8DC80AB
:1008A40000F0C6FBD8F80420A2B1144603E0636844
:1008B40022467BB11C4623685B1BF8D40B2B1FD844
:1008C4009442636854D053600CE00C2333600020DE
:1008D400BDE8F88329463046FFF7ACFF431C0446C5
:1008E40019D00560304600F0A5FB04F10B00231D70
:1008F40020F00700C21A1CBF1B1AA350BDE8F883DE
:1009040061199442256014BF5160C8F80410635102
:1009140063684B60E6E7D8F804701FB33C467F6811
:10092400002FFBD123683946304604EB030900F05D
:10093400B7FD814516D123683046ED1A2946FFF7E5
:1009440079FF01300ED02368D8F804202B442360AB
:10095400536883B1A34203D01A465B689C42FBD11F
:100964000023B0E70C233046336000F063FBAEE7AE
:10097400C8F80430B6E7C8F80470B3E7FC010020F7
:10098400002950D038B551F8043C0C1F002BB8BFD7
:10099400E418054600F04CFB274A13682BB1A34228
:1009A4000CD92168601883422CD0284663601460F7
:1009B400BDE8384000F03EBBA3420FD81A465B683E
:1009C400002BF9D111685018844217D02CD36360DE
:1009D40054602846BDE8384000F02CBB116850181C
:1009E400A04214D020D8216860188342EFD118683F
:1009F4005B680844C4E900035460EAE723680B44D5
:100A04001360E6E718685B6808442060CDE7206857
:100A14000144501883421160DBD1D3E9000401443E
:100A2400C2E90014D5E770470C2328462B60BDE8C3
:100A3400384000F0FFBA00BF0002002088420ED9FF
:100A44008B1883420BD900EB020C002A6DD062464E
:100A540013F801CD994202F801CDF9D170470F2A5C
:100A64000FD8034602F1FF3C002A5ED00CF1010CC2
:100A7400013B8C4411F8012B614503F8012FF9D196
:100A8400704740EA01039B0750D1A2F1100370B5EF
:100A940001F1200C23F00F0501F1100E00F11004F8
:100AA400AC441B095EF8105C0EF1100E44F8105CA7
:100AB4005EF81C5C103444F81C5C5EF8185C44F866
:100AC400185C5EF8145CE64544F8145CEAD1013322
:100AD40012F00C0F01EB031102F00F0400EB0313EF
:100AE40028D08E46043C24F003064FEA940C1E449E
:100AF4001C1F5EF8045B44F8045FB442F9D10CF1A6
:100B0400010402F0030203EB840301EB840102F10C
:100B1400FF3C4AB10CF1010C013B8C4411F8012B50
:100B2400614503F8012FF9D170BD7047034602F106
:100B3400FF3C9BE72246EAE7844641EA000313F0C0
:100B4400030349D1403A23D30B6803604B684360E5
:100B54008B688360CB68C3600B6903614B69436135
:100B64008B698361CB69C3610B6A03624B6A43621D
:100B74008B6A8362CB6AC3620B6B03634B6B436305
:100B84008B6B8363CB6BC36340304031403ADBD221
:100B940030320BD30B6803604B6843608B6883600F
:100BA400CB68C36010301031103AF3D20C3205D345
:100BB40051F8043B40F8043B043AF9D2043208D01B
:100BC400D2071CBF11F8013B00F8013B01D30B888D
:100BD40003806046704700BF082A13D38B07B1D047
:100BE40010F00303AED0C3F10403D21ADB071CBF19
:100BF40011F8013B00F8013BA4D331F8023B20F883
:100C0400023B9FE7043AD9D3013A11F8013B00F8BB
:100C1400013BF9D20B7803704B7843708B78837067
:100C2400604670472DE9F041144641B30AB30646C5
:100C34000D4600F047FC8442074602D8B4EB500F3F
:100C440013D821463046FFF71BFE804650B1BC4204
:100C54002246294628BF3A46FFF76EFF294630460A
:100C6400FFF78EFE4046BDE8F081A8464046BDE849
:100C7400F081A046FFF784FE4046BDE8F0811146AE
:100C8400BDE8F041FFF7FCBD2DE9F84F92461F4641
:100C94000A698B680C469A42B8BF1A46CAF8002003
:100CA40091F843300646DDF8289013B10132CAF8B2
:100CB4000020226891065FD5DAF800300233CAF8C2
:100CC4000030226812F0060F11461DD1E1689942E6
:100CD400D8BF114618DD4FF0000804F1190B05E0E8
:100CE400E568DAF80030ED1A45450CDD01235A4673
:100CF40039463046C847013008F10108F0D14FF0B9
:100D0400FF30BDE8F88F216894F84330003B18BFEA
:100D140001238A060AD53021E21882F8431094F898
:100D240045105A1C2244023382F843103946304697
:100D340004F14302C8470130E1D0D4E9022023681A
:100D4400DAF8005003F00603042B21691BD08A4211
:100D540020DD4FF00008521A904400251A3401E0B7
:100D6400454517DA0123224639463046C847013043
:100D740005F10105F4D1C2E712F0060F0DD0003BD6
:100D840018BF0123D2E7401B8A4220EAE078E2DC64
:100D94000028E2DC0020BDE8F88FE168DAF80030D2
:100DA4009942D8BF114696DCAEE700BF2DE9F04763
:100DB40017460A7E84B00C46064698460C9D01F1FF
:100DC400430C002A35D0A2F15803D9B2202969D89E
:100DD400202B67D8DFE813F0E600660066006600A3
:100DE4006600660066006600660066006600AC0089
:100DF40070006600660066006600700066006600AB
:100E04006600660021008300C60066006600B60026
:100E14006600830066006600EC002B682268181DDB
:100E24006169286010061B6802D4520600F1E08054
:100E340019600023E14623613B4621463046CDF844
:100E4400008003AAFFF720FF013020D04A4639462C
:100E540030462369C047013019D02368E0689B07F6
:100E6400DDF80C9018D5484516DD002504F1190A63
:100E740004E0E068A0EB0903AB420DDD0123524618
:100E840039463046C047013005F10105F1D14FF034
:100E9400FF3004B0BDE8F0874845B8BF484604B009
:100EA400BDE8F087012084F8422004F142090023C0
:100EB400206184F84330BFE72A682368111D1806AF
:100EC400296002D4590600F1958010680146002873
:100ED4006268C0F293804FF00A0E534815E0206810
:100EE4002B6810F0800F53F8041B02D1400648BF52
:100EF40089B26F2A14BF4FF00A0E4FF0080E4A4809
:100F04002B600023626884F84330002AA26051DB1E
:100F1400236823F00403236000294BD1002A7BD1EA
:100F2400E146BEF1080F56D0ACEB0903236183E719
:100F34002A680120116804322A6004F1420984F805
:100F44004210B4E72B6800211A1D2A60D3F80090E0
:100F54006268484600F070F8002863D0A0EB0900EE
:100F64006060A4E7236843F02003236078222F48BD
:100F740084F845202A6813F0800F52F8041B03D12B
:100F840013F0400F18BF89B22A60DA0744BF43F058
:100F94002003236019B9236823F0200323604FF052
:100FA400100EAEE75823204884F845302368E1E763
:100FB4002368DBE77546E146B1FBF5F30A4605FB1A
:100FC400131A194610F80A30AA4209F8013DF3D25F
:100FD400BEF1080FA8D12368DD07A5D5626823698F
:100FE4009A42A1DC302309F1FF3989F800309BE7EC
:100FF40019801EE7B2F90010084668E72D20002A80
:10100400A26084F8430002DB23F0040323600A2572
:101014000548AE464942CEE7037804F1420984F814
:1010240042307EE7606842E7608A0008748A0008FC
:10103400704700BF704700BF5FFA81FC810744D04E
:101044000346511E22B909E09A0709D0013905D394
:101054001846027801336245F6D170470020704784
:10106400184603290CD80029F8D00346014401E0AE
:101074008B42F3D0184613F8012B6245F8D1704720
:1010840010B50CEB0C24024604EB044402E00439D2
:10109400032915D9104652F8043B6340A3F1013EDD
:1010A4002EEA030313F0803FF1D00346014401E02C
:1010B4008B4208D0184613F8012B6245F8D110BDB5
:1010C40010460029F1D1002010BD1146C9E700BF28
:1010D4000EB400B582B003AB53F8042B81680193BE
:1010E40000F056F802B05DF804EB03B0704700BF9F
:1010F4000FB400B5074A83B004AB106853F8042B4F
:101104008168019300F044F803B05DF804EB04B087
:10111400704700BF000000209368013B002B9360E0
:1011240005DAD2F818C0634507DB0A2905D013682D
:10113400581C106008461970704700F063B900BF6E
:101144009BB1F8B5134406460F46541E5D1E01E0DC
:10115400AC4208D03A46304614F8011FFFF7DCFFD2
:10116400431CF5D1F8BD0020F8BD0020704700BF36
:10117400936810B514461BB918460023636010BD6C
:1011840000F0A8F90023A3600023636010BD00BF32
:101194002DE9F04FA1B08B4691461C46049018B13E
:1011A400036A002B00F01381BBF80C30180740F1E0
:1011B4008E80DBF81030002B00F08980002343F28E
:1011C40020020D9399F800300127824E0794ADF860
:1011D4003920002B73D04D4603E015F8013F002B56
:1011E4007FD0252BF9D1B5EB090A7DD12B78002BC3
:1011F40065D000234FF0FF320135CDE90923089370
:101204000B938DF863301E9306E02546089B801BE4
:1012140007FA00F0034308932C46052214F8011B37
:101224003046FFF709FFA1460028EED1089BD906F6
:1012340044BF20228DF863201A0748BF2B22297847
:1012440048BF8DF863202A2964D1079A11680432B3
:1012540000290792C0F296800B9169782E296FD0ED
:101264005D4C03222046FFF7E7FE38B14022089B7D
:10127400001B8240134309F10109089319F8011B6B
:10128400062256488DF83810FFF7D6FE00287FD086
:10129400534B002B69D007A900915A460498514B2F
:1012A40008A9AFF300800390039B013307D00D9B83
:1012B400039A13440D9399F80030002B8BD1BBF89B
:1012C4000C305B060AD40D9821B0BDE8F08F594666
:1012D400049800F075FC00283FF470AF4FF0FF3025
:1012E400F2E7B5EB090AEAD009F1FF38059545465E
:1012F400DDF8108001E0A2453ED92C465A4640460E
:1013040015F8011FFFF708FF02340130A4EB0904AC
:10131400F1D1D4E7A1F13002092A88BFA9469DD8AA
:101324000B9B00E00134217803EB830302EB4303BE
:10133400A1F13002092AF5D92E29A1460B938FD1A8
:1013440099F801102A292DD1079B09F102001A6886
:101354000433002A0793B8BF4FF0FF3399F8021003
:1013640009928146B8BF09937AE7079B073323F0B4
:101374000703083307939AE70D99059D51442B7889
:101384000D9134E7494243F002030B91089364E75B
:1013940007A900915A460498124B08A9FFF706FDC5
:1013A400039081E70023A1F13002092A09F1010920
:1013B40009933FF655AF19F8011F03EB830302EBC2
:1013C4004303A1F13002092AF5D9099348E700F053
:1013D400E1FAE9E64C8A0008548A0008588A0008B1
:1013E40000000000451100088C4600B586461346EF
:1013F400034A714610685DF804EB6246FFF7C8BE05
:1014040000000020F8B506460D46144610B1036AE4
:10141400002B37D0A269A389A2601A0719D52369C2
:10142400BBB122686169D31AEDB299422F4620DD1F
:101434000133A1680139A160511C216015706269F2
:101444009A420DD0A389DB0701D50A2D08D038466E
:10145400F8BD2146304600F0B3FB38B92369E0E714
:101464002146304600F048FB0028F0D04FF0FF370B
:10147400EDE72146304600F03FFB0028F6D101237A
:101484002268D6E700F086FAC4E700BF03460A469E
:10149400024908681946FFF7B5BF00BF00000020E5
:1014A400002238B5064D044608462A6000F05EFD69
:1014B400431C00D038BD2B68002BFBD0236038BD03
:1014C4004003002051F8043C181F002BBCBF0B58EC
:1014D400C01870479368002B00F0F0802DE9F04F9E
:1014E400B1F90CC090461CF0080F81460C4683B03D
:1014F4002BD00B694BB31CF00207D8F8006032D034
:101504004FF0000A5546D4F828B0216AAB4FC5B154
:10151400BD422B46524628BF3B464846D847002882
:1015240040F3C280D8F8083082441B1A2D1AC8F838
:101534000830002B00F0AE80D4F828B0216A002DCA
:10154400E6D1D6E900A50836E1E72146484600F091
:1015540037FB002840F0AD80B4F90CC0D8F8006027
:101564001CF00207CCD11CF0010A63D15746236852
:10157400A16818468B46002F58D01CF4007F00F059
:10158400B180B9420A4600F2DD801CF4906F2FD07E
:10159400216962695D1A02EB420202EBD2726B1C92
:1015A40052103B44934292BF93469B461A461CF406
:1015B400806F00F0E68011464846FFF761F9002885
:1015C40000F0F5802A4621690190FFF7B5FAA28957
:1015D400019B22F4906242F08002A2815819C4F85F
:1015E40014B0ABEB05053A46BB462361A560206009
:1015F4003D46002751460192FFF720FAA16823686F
:10160400019AA1EB0B011A44A1602260D8F80830BA
:10161400AA445B1BC8F80830002B3BD02368A168A0
:1016240018468B46B4F90CC0002FA6D1D6E900A702
:1016340008369EE73846BB463D46002D40D000287C
:1016440045D03A46D4E904C32068AA4228BF2A46B2
:101654006045A16804D901EB030A524500F3828076
:10166400934272DC5A464846216AD4F828C0E047BF
:10167400B0F1000A18DDB7EB0A070FD00120D8F843
:101684000830D344A3EB0A03A5EB0A05C8F80830D5
:10169400002BD2D1002003B0BDE8F08F214648468C
:1016A40000F02AFA0028EAD0B4F90C3043F04003E1
:1016B400A3814FF0FF3003B0BDE8F08F00207047E6
:1016C400756833460836002DFAD0D3F800B02A46A0
:1016D4000A215846FFF7B0FC002865D00130A0EB82
:1016E4000B07AEE722699A4214D36569BD4211D84B
:1016F4006FF00043BB4228BF3B4693FBF5F35246D1
:1017040005FB03F34846A56A216AA847051ECBDDFD
:101714007F1B7BE7B94228BF39460D461846514620
:101724002A46FFF78BF9A1682368491B2B44A16063
:1017340023600029ECD12146484600F0DDF9002859
:10174400E6D0B1E7BB463A4652E759460192FFF765
:1017540075F9019AA36892469B1AA36023681344FF
:10176400236088E759465246FFF768F92368214603
:1017740053444846236000F0BFF900283FF47BAF90
:1017840092E74846FFF74EFA034600287FF426AF57
:1017940048462169FFF7F4F80C22B4F90C30C9F873
:1017A400002023F0800381E76A1C17464AE70C22D5
:1017B400B4F90C30C9F8002078E700BF00FCFF7FC3
:1017C40000207047024A0349034800F0D7B900BF1C
:1017D40050000020FD1A0008040000200C4B416852
:1017E40010B59942044601D000F086F9A168094B6E
:1017F400994202D0204600F07FF9E168064B9942F5
:1018040004D02046BDE8104000F076B910BD00BFFA
:10181400040200206C020020D40200200020704743
:101824002DE9F84300250423294C2A490822C4F849
:10183400381104F15C002946DFF89C90DFF89C80A5
:10184400274F284EC4E90335C4E90055C4E90555BA
:10185400A5606566FEF79EFF234B0822294604F126
:10186400C4006367C4E90849C4E90A87C4E91A558E
:10187400C4E91E5526632567C4F8CC50C4F88050CB
:10188400FEF788FF194B2946C4F8DC30082204F11E
:10189400680304F59670C4F88830C4E92398C4E951
:1018A4002576C4E93455C4E93855C4F8D850C4F889
:1018B4003451C4F8E850FEF76DFF04F1D003C4E9D5
:1018C4003D98C4E93F76C4F8F030BDE8F88300BF22
:1018D40004020020C9170008BD1D0008E51D00080A
:1018E400251E0008491E000809000100120002001C
:1018F400F8B5254B0646D3F83831002B3CD0234F9E
:10190400D7E90134013B04D51DE05A1C04F16804F5
:1019140019D0B4F90C50013B002DF6D11C4B082210
:101924002946C4E90155C4E90455E36065662560A8
:10193400A56104F15C00FEF72DFFC4E90D55C4E96F
:1019440012552046F8BD3D680DB12F46D8E74FF437
:10195400D6713046FEF794FF044680B10423056037
:10196400294625460C304FF4D072A0606360FEF720
:1019740011FF3C602F46C3E7FFF752FFBFE70C237C
:1019840038603360DDE700BF04020020500000200F
:101994000100FFFF036A03B17047044B044AD3F804
:1019A40038310262002BF7D13AE700BF040200206D
:1019B400E1170008704700BF704700BF0020024ACB
:1019C400024900F0DBB800BF50000020C517000832
:1019D4000020024A024900F0D1B800BF50000020A4
:1019E40021180008F8B5B1F90C300C461E0707465B
:1019F40039D44A68002A53DDE56A002D31D000222B
:101A04003E683A6013F48052216A55D10123384666
:101A1400A847451C024663D0B4F90C30E56A216A34
:101A2400580705D56368D21A636B0BB1236CD21ABD
:101A340000233846A847421C40D000222369626034
:101A44002360A389DB0400D56065616B3E6041B10E
:101A540004F14403994202D03846FEF791FF002373
:101A640063630020F8BD0E69002EFAD09B0718BFEF
:101A740000230D6808BF4B690E60AD1B8B600CE042
:101A84002B463246D4F828C03846216AE047B0F1E4
:101A9400000CA5EB0C05664406DD002DF0DCE0E748
:101AA4000A6C002AA8DCDCE7B4F90C3043F04003EC
:101AB4004FF0FF30A381F8BD626DB1E73968B4F926
:101AC4000C301D29F2D80B4ACA40D507EED50022A6
:101AD400626022692260DA04B7D50029B4D0B4E781
:101AE4003B68002B98D01D2B01D0162BDCD13E6017
:101AF400B7E700BF010040200B69B3B110B504463D
:101B040082B008B1036A5BB1B1F90C3013B900209B
:101B140002B010BD204602B0BDE81040FFF762BF1E
:101B24000191FFF737FF0199EEE70020704700BFEE
:101B3400B8B138B50D4A0369044615682BB10DB127
:101B44002B6A53B1B4F90C300BB9002038BD2146CF
:101B54002846BDE83840FFF745BF2846FFF71AFF7F
:101B6400F0E7034A0349044800F008B800000020E5
:101B740050000020FD1A0008040000202DE9F8435D
:101B84004FF0000980460F461646D6E90154013D40
:101B940010D4A389012B08D9B4F90E30013304D031
:101BA40021464046B84749EA0009013D6B1C04F14F
:101BB4006804EED13668002EE7D14846BDE8F883C4
:101BC40038B52F4B05461B680C4613B11A6A002A18
:101BD4004BD0B4F90C3018071CD5226922B313F08A
:101BE400010107D000206169A0604942A1613AB1B6
:101BF400002038BD980758BF6169A160002AF7D159
:101C0400190658BF1046F4D543F04003A3814FF0A2
:101C1400FF3038BDD9062CD55A0712D4226943F0B7
:101C24000803A381002ADAD103F42071B1F5007FFF
:101C3400D5D02146284600F025F8B4F90C302269A5
:101C4400CDE7616B51B104F14402914204D02846BE
:101C5400FEF796FEB4F90C3000226263002122697B
:101C640023F02403C4E90021D9E71846FFF792FEC4
:101C7400AFE7092243F040032A60A381C7E700BF0E
:101C84000000002070B5B1F90C300C46990796B0ED
:101C940007D5012204F14703C4E90432236016B0D6
:101CA40070BDB4F90E100546002929DB6A4600F020
:101CB400F5F8002822DB4FF480612846019EFEF7E8
:101CC400DFFD88B3A38906F4704643F08003A38143
:101CD4004FF48063B6F5005FC4E904032060DED1ED
:101CE4002846B4F90E1000F055F80028D7D0A3897F
:101CF40023F0030343F00103A381D0E7B4F90C30CC
:101D040013F0800F14BF40264FF4806628463146F6
:101D1400FEF7B6FD40B1A389C4E9040643F080038D
:101D24002060A38116B070BDB4F90C309A05B6D406
:101D3400012123F0030304F1470243F00203C4E941
:101D44000421A3812260AAE770B50C46B1F90E10F4
:101D5400154600291E4696B00FDB6A4600F09EF831
:101D640000280ADB019B4FF4806203F47043A3F55F
:101D74000053B3FA83F35B0907E0A289002312F04E
:101D8400800F14BF40224FF48062002033602A6029
:101D940016B070BD002238B5064D044608462A60C8
:101DA40000F0CCF8431C00D038BD2B68002BFBD0CE
:101DB400236038BD4003002010B50C46B1F90E1065
:101DC40000F056F8002803DB636D0344636510BD1F
:101DD400A38923F48053A38110BD00BF0020704762
:101DE4002DE9F0410C46B1F90C101F46CB05054610
:101DF40016460BD421F48051A1813B463246284635
:101E0400B4F90E10BDE8F04100F072B8B4F90E1048
:101E14000223002200F056F8B4F90C10EAE700BFE0
:101E240010B50C46B1F90E1000F04CF8B4F90C30B2
:101E3400421C0EBF23F4805343F480536065A38196
:101E440010BD00BFB1F90E1000F000B8002238B583
:101E5400064D044608462A6000F060F8431C00D092
:101E640038BD2B68002BFBD0236038BD4003002015
:101E740038B50C46114600228446074D20462A6098
:101E84001A46644600F06AF8431C00D038BD2B683B
:101E9400002BFBD0236038BD4003002070B5002622
:101EA400074D0446084611462E6000F03FF8431CD7
:101EB40000D070BD2B68002BFBD0236070BD00BF29
:101EC4004003002038B50C46114600228446074DD5
:101ED40020462A601A46644600F038F8431C00D0B5
:101EE40038BD2B68002BFBD0236038BD4003002095
:101EF40038B50C46114600228446074D20462A6018
:101F04001A46644600F040F8431C00D038BD2B68E4
:101F1400002BFBD0236038BD400300205822024B25
:101F24004FF0FF301A607047400300205822024BE4
:101F34004FF0FF301A607047400300205822024BD4
:101F440000201A60704700BF400300205822024B53
:101F54004FF0FF301A607047400300205822024BB4
:101F64004FF0FF301A60704740030020044A0549CF
:101F74001368002B08BF0B461844106018467047BE
:101F840044030020700900205822024B4FF0FF3018
:101F94001A60704740030020044B0022DA61044AAF
:101FA400136943F001031361018070474803002063
:101FB40000200240194BDB6813F0100305D0184AC7
:101FC400D36943F00203D3611023144AD26812F098
:101FD400040F06D01249CA6942F00102CA6143F0F3
:101FE40004030E4AD26912F0010F09D00C49CA69E0
:101FF40042F00402CA610949CA6922F00102CA61B5
:1020040040F20112934202D0044AD3607047034A5B
:10201400D36923F00103D361704700BF002002405D
:1020240048030020074B1B6913F0800F07D0054BB2
:10203400054A5A6002F188325A6000207047012034
:10204400704700BF0020024023016745034A13691B
:1020540043F0800313610020704700BF002002405A
:1020640038B5044601F08CF90546164BDB6813F0CD
:10207400010F0AD0B4F1FF3FF7D024B101F080F989
:10208400401BA042F1D903201BE00E4BDB6813F088
:10209400200F02D00B4B2022DA600A4BDB6813F0CE
:1020A400100F0BD1074BDB6913F0010F06D1054B61
:1020B400DB6813F0040F01D1002002E0FFF77AFF80
:1020C400012038BD002002402DE9F8431E46244B70
:1020D4001B7E012B41D004460F469046204B012223
:1020E4001A764CF25030FFF7BBFF034678BB012C45
:1020F40008D0022C03D04FF004091C4607E04FF02F
:102104000209FAE74FF00109F7E70134E4B24C455C
:102114001DD22101C1F12002A1F1200328FA01F10D
:1021240006FA02F2114326FA03F3194389B207EBC4
:102134004400FFF731FF4CF25030FFF791FF094B99
:102144001D6925F001051D6103460028DDD0044A00
:10215400002111761846BDE8F8830223FAE700BF90
:10216400480300200020024082B0084B1B68084A44
:10217400A2FB03235B0A00FB03F3019300BF019B53
:102184005A1E0192002BF9D102B070475C00002066
:10219400D34D621070B582B00446036813F0010F8A
:1021A4002CD09A4B5B6803F00C03042B1DD0974B87
:1021B4005B6803F00C03082B12D06368B3F5803F0F
:1021C40041D0002B55D103F1804303F504331A6841
:1021D40022F480321A601A6822F480221A6037E0EE
:1021E4008A4B5B6813F4803FE7D0884B1B6813F479
:1021F400003F03D06368002B00F0AE81236813F026
:10220400020F75D0814B5B6813F00C0F5FD07F4BCE
:102214005B6803F00C03082B54D02369002B00F0F7
:102224008A807B4B01221A6001F0AAF80546774B9D
:102234001B6813F0020F75D101F0A2F8401B0228AD
:10224400F5D903208DE1714A136843F48033136098
:10225400636843B301F094F805466C4B1B6813F4B0
:10226400003FCBD101F08CF8401B6428F5D9032042
:1022740077E1B3F5A02F09D0644B1A6822F48032B9
:102284001A601A6822F480221A60E1E703F180439D
:10229400A3F53C331A6842F480221A601A6842F4A7
:1022A40080321A60D4E701F06BF80546574B1B687F
:1022B40013F4003FA2D001F063F8401B6428F5D961
:1022C40003204EE1514B5B6813F4803FA5D14F4B83
:1022D4001B6813F0020F03D02369012B40F03E81E9
:1022E4004A4A136823F0F803616943EAC10313609F
:1022F400236813F0080F33D0A369002B5CD0444B40
:102304000122C3F8802401F03BF805463F4B5B6A89
:1023140013F0020F21D101F033F8401B0228F5D944
:1023240003201EE1394A136823F0F803616943EA84
:10233400C1031360DCE7364B00221A6001F020F879
:102344000546324B1B6813F0020FD1D001F018F888
:10235400401B0228F5D9032003E10120FFF704FF05
:10236400236813F0040F00F09780284BDB6913F007
:10237400805F34D1254BDA6942F08052DA61DB693F
:1023840003F080530193019B0125224B1B6813F436
:10239400807F26D0E368012B3ED0002B54D103F17B
:1023A400804303F504331A6A22F001021A621A6A9E
:1023B40022F004021A6234E0154B0022C3F8802490
:1023C40000F0DEFF0546114B5B6A13F0020FC7D025
:1023D40000F0D6FF401B0228F5D90320C1E00025F8
:1023E400D3E70C4A136843F48073136000F0C8FF0A
:1023F4000646084B1B6813F4807FCBD100F0C0FF66
:10240400801B6428F5D90320ABE000BF0010024014
:102414000000424200700040544A136A43F0010332
:102424001362E36833B300F0ABFF06464F4B1B6AFD
:1024340013F0020F2FD100F0A3FF801B41F2883369
:102444009842F3D903208CE0052B09D0474B1A6A34
:1024540022F001021A621A6A22F004021A62E0E708
:10246400424B1A6A42F004021A621A6A42F00102EA
:102474001A62D6E700F084FF06463C4B1B6A13F051
:10248400020F08D000F07CFF801B41F28833984291
:10249400F3D9032065E0E5B9E369002B60D0334A42
:1024A400526802F00C02082A5DD0022B17D0304B80
:1024B40000221A6600F064FF04462C4B1B6813F0DC
:1024C400007F47D000F05CFF001B0228F5D90320F1
:1024D40047E0264AD36923F08053D361DCE7244BD9
:1024E40000221A6600F04CFF0546204B1B6813F0CF
:1024F400007F06D000F044FF401B0228F5D90320DA
:102504002FE0236AB3F5803F1AD018494B6823F4AF
:102514007413226A606A024313434B60144B012212
:102524001A6600F02DFF0446104B1B6813F0007F61
:102534000ED100F025FF001B0228F5D9032010E07E
:102544000A4A536823F40033A1680B435360DCE761
:10255400002006E0002004E0012002E0012000E069
:10256400002002B070BD0120FBE700BF0010024054
:102574000000424286B0174B0FCB0DF1180C0CE94A
:102584000F0040F20123ADF80430134B5B6803F0F5
:102594000C02082A02D0114806B07047C3F38342E4
:1025A40018326A4412F8100C13F4803F0DD00A4B11
:1025B4005B68C3F3404318336B4413F8142C074B84
:1025C400B3FBF2F303FB00F0E6E7054B03FB00F07B
:1025D400E2E700BF9C8900080010024000127A0064
:1025E40000093D0070B504460D46594B1B6803F0C5
:1025F40007038B420BD2564A136823F007030B439D
:102604001360136803F007038B4240F09A80236839
:1026140013F0020F06D04F4A536823F0F003A16869
:102624000B435360236813F0010F52D06368012BEE
:1026340023D0022B28D0474A126812F0020F00F070
:10264400828044494A6822F0030213434B6000F03D
:1026540097FE06466368012B1DD0022B2AD03D4B02
:102664005B6813F00C0F34D000F08AFE831B41F238
:1026740088329342F3D9032062E0364A126812F496
:10268400003FDED101205BE0324A126812F0007F85
:10269400D7D1012054E02F4B5B6803F00C03042BCB
:1026A40017D000F06DFE831B41F288329342F2D9B9
:1026B400032045E0274B5B6803F00C03082B08D08C
:1026C40000F05EFE801B41F288339842F2D9032069
:1026D40036E01F4B1B6803F00703AB420AD91C4AC0
:1026E400136823F007032B431360136803F00703F5
:1026F400AB422AD1236813F0040F06D0154A53685D
:1027040023F4E063E1680B435360236813F0080F7C
:1027140007D0104A536823F46053216943EAC10384
:102724005360FFF727FF0B4B5B68C3F303130A4A9D
:10273400D35CD840094B1860002000F0F1FD002064
:1027440070BD0120FCE70120FAE70120F8E700BF93
:102754000020024000100240908A00085C00002023
:10276400014B1868704700BF5C00002008B5FFF7F4
:10277400F7FF044B5B68C3F30223034AD35CD840DE
:1027840008BD00BF00100240888A000808B5FFF7A2
:10279400E7FF044B5B68C3F3C223034AD35CD8400E
:1027A40008BD00BF00100240888A000830B4036AE4
:1027B40023F001030362036A4268846924F0730C02
:1027C4000C6844EA0C0423F0020C8B6843EA0C0303
:1027D400114DA84203D005F50065A84205D123F0A8
:1027E4000803CD682B4323F004030B4DA84203D008
:1027F40005F50065A84207D122F440724D6945EA07
:10280400020C8A6942EA0C02426084614A684263AB
:10281400036230BC704700BF002C014030B4036A2F
:1028240023F480730362036A4268C46924F0730C5E
:102834000C6844EA0C0523F400738C6843EA04230F
:10284400114CA04203D004F50064A04206D123F445
:102854000063CC6843EA042323F480630A4CA04257
:1028640003D004F50064A04207D122F440524C691D
:1028740042EA04128C6942EA04124260C5614A6861
:10288400C263036230BC7047002C014030B4036A59
:1028940023F480530362036A4468C26922F4E64263
:1028A4000D6842EA052223F400538D6843EA053398
:1028B400094DA84203D005F50065A84204D124F4CB
:1028C40080444D6944EA85144460C2614A680264E4
:1028D400036230BC704700BF002C014010B4036A8F
:1028E400046A24F001040462846924F0F00C4CEAC4
:1028F400021223F00A030B438261036210BC704787
:1029040010B4036A23F0100303628469036A24F495
:10291400704C4CEA023223F0A00343EA01138261B3
:10292400036210BC704710B4846824F47F4C42EAFC
:1029340003220A4342EA0C02826010BC704710B5BD
:102944000468A26822F070024B68134323F0070363
:102954000A681A43A2604B68602B24D009D8402B24
:1029640010D0502B0DD10A6989680068FFF7B6FFB3
:1029740007E0702B05D10B698A68C9680068FFF706
:10298400D2FF10BD03681C6A1A6A22F001021A629F
:102994000268936923F0F003096943EA0113936120
:1029A40003681C62EDE70A6989680068FFF7A8FFFD
:1029B400E7E7704738B590F83C30012B18D004464F
:1029C400012580F83C50022380F83D30FFF7B7FF23
:1029D4002268D36823F04003D3602268D36823F4C9
:1029E4008043D36084F83D50002084F83C0038BD17
:1029F4000220FCE70368244A904212D002F50062E8
:102A040090420ED0B0F1804F0BD0A2F59832904294
:102A140007D002F58062904203D002F580629042B2
:102A240003D123F070034A681343174A904212D02B
:102A340002F5006290420ED0B0F1804F0BD0A2F5A7
:102A44009832904207D002F58062904203D002F59A
:102A54008062904203D123F44073CA68134323F085
:102A640080034A691A4302608B68C3620B688362FD
:102A7400054B984203D003F50063984201D10B69DA
:102A84000363012343617047002C0140B0B110B5CA
:102A9400044690F83D3063B1022384F83D3021466A
:102AA40051F8040BFFF7A6FF012384F83D30002002
:102AB40010BD80F83C30FFF77CFFEDE70120704744
:102AC40030B4036A23F010030362036A4468826922
:102AD40022F4E6420D6842EA052223F020038D68C1
:102AE40043EA0513114DA84203D005F50065A84239
:102AF40006D123F08003CD6843EA051323F0400395
:102B04000A4DA84203D005F50065A84207D124F474
:102B140040644D6944EA85048D6944EA850444604F
:102B240082614A688263036230BC7047002C0140B2
:102B340038B590F83C30012B66D004460D4601238D
:102B440080F83C30022380F83D300C2A1AD8DFE8A4
:102B540002F00719191920191919341919194700FC
:102B64000068FFF723FE2268936943F0080393612A
:102B74002268936923F004039361226893692969A5
:102B84000B439361012384F83D30002084F83C001A
:102B940038BD0068FFF794FF2268936943F400632B
:102BA40093612268936923F4806393612268936933
:102BB400296943EA01239361E4E70068FFF72EFEE5
:102BC4002268D36943F00803D3612268D36923F0F0
:102BD4000403D3612268D36929690B43D361D1E724
:102BE4000068FFF753FE2268D36943F40063D3619E
:102BF4002268D36923F48063D3612268D369296985
:102C040043EA0123D361BDE70220C1E74FF0010C81
:102C14000CFA01FC036A23EA0C030362036A8A4088
:102C2400134303627047000010B504460122006894
:102C3400FFF7ECFF2368094A934203D002F50062D0
:102C4400934203D15A6C42F400425A6422681368D6
:102C540043F001031360002010BD00BF002C0140AD
:102C64004FF0040C0CFA01FC036A23EA0C03036220
:102C7400036A8A4013430362704710B50446042272
:102C84000068FFF7EDFF2268536C43F4004353647C
:102C94002268136843F001031360002010BD02464C
:102CA40090F83C30012B21D0012380F83C30CB68D4
:102CB40023F440738868034323F480634868034320
:102CC40023F400630868034323F48053086903432F
:102CD40023F4005348690343896923F440430B43B5
:102CE40011684B64002082F83C0070470220704752
:102CF40090F83C20012A22D030B40346012083F806
:102D04003C00022283F83D201C68626822F07002B5
:102D140062601C6862680D682A4362601C68A2686D
:102D240022F08002A2601C68A26849680A43A2607B
:102D340083F83D00002083F83C0030BC704702203B
:102D44007047000090F82420012A25D08CB0034657
:102D5400012280F82420114A00920268906810F041
:102D6400010F07D10D48806810F0010F02D10C4803
:102D7400824209D09A6A42F020029A62012000221B
:102D840083F824200CB07047506820F47020096840
:102D9400014351600020F2E70220704700280140FF
:102DA40000240140002808DB0901C9B200F1604099
:102DB40000F5614080F80013704700F00F0009012E
:102DC400C9B2014B1954704714ED00E000B500F08E
:102DD4000700C0F1070CBCF1040F28BF4FF0040C2E
:102DE400031D062B0FD9C31E4FF0FF3E0EFA0CF045
:102DF40021EA000199400EFA03FE22EA0E0241EA9A
:102E040002005DF804FB0023EEE70000074AD368E4
:102E140023F4E0631B041B0C000200F4E060034392
:102E240043F0BF6343F40033D360704700ED00E028
:102E340010B50446054BD868C0F30220FFF7C6FF5F
:102E440001462046FFF7AEFF10BD00BF00ED00E0D5
:102E540000F01F02400901239340024A42F8203047
:102E6400704700BF00E100E00138B0F1807F0BD271
:102E74004FF0E0235861054AF02182F82310002026
:102E8400986107221A6170470120704700ED00E045
:102E9400042806D04FF0E022136923F004031361E1
:102EA40070474FF0E022136943F004031361704745
:102EB400704708B5FFF7FCFF08BD0000064B002271
:102EC400DA61064B1A6942F004021A611A6942F087
:102ED40040021A61704700BF4803002000200240EE
:102EE400064B0022DA61064B1A6942F002021A61AB
:102EF40058611A6942F040021A6170474803002081
:102F040000200240264B1B7E012B46D070B505469F
:102F14000E46234B01221A760368022B20D04CF272
:102F24005030FFF79DF890BB4FF0FF333360AC682F
:102F34000121EA68AB6803EBC223A34228D92046E7
:102F4400FFF7CEFF4CF25030FFF78AF8154A1369A9
:102F540023F0020313610146B8B904F50064E8E7FD
:102F64004CF25030FFF77CF808B1012110E0012049
:102F7400FFF7A4FF4CF25030FFF772F80146094AFC
:102F8400136923F00403136102E0346000E00121BB
:102F9400034B00221A76084670BD0221084670478A
:102FA400480300200020024070B582B00024A446EB
:102FB400ABE0854DAA420CD013D8A5F58015AA42E2
:102FC40007D005F57025AA4203D0A5F58015AA42BD
:102FD40010D18A68002A62D0012A5BD04361082498
:102FE40008E07A4DAA42F4D005F58035AA4201D111
:102FF400EFE7CC68BEF1FF0F53D806464FEA8C02C8
:1030040033680F25954023EA050304FA02F21343BB
:1030140033604B6813F0805F75D06D4B9A6942F052
:1030240001029A619B6903F001030193019B4FEA3A
:103034009C02951C674B53F825600CF00305AD000A
:103044000F23AB4026EA0306634B984230D003F5C6
:103054008063984200F0968003F58063984200F004
:10306400938003F58063984200F0908003F58063B9
:10307400984200F08D8003F58063984216D00623B1
:1030840017E0CC680434B5E7CC680834B2E7CC6800
:103094000C34AFE703610824ACE70024AAE7042456
:1030A400A8E7061DACF108029200A9E7052300E099
:1030B4000023AB4033430232464D45F822304B687F
:1030C40013F4803F66D0454A136843EA0E03136045
:1030D4004B6813F4003F63D0404A536843EA0E033D
:1030E40053604B6813F4801F60D03C4A936843EAF2
:1030F4000E0393604B6813F4001F5DD0374AD36806
:1031040043EA0E03D3600CF1010CBCF10F0F59D844
:10311400012303FA0CF30A6802EA030E33EA0202FB
:10312400F1D14A68122A3FF644AF122A3FF662AF41
:1031340001A555F822F000BFD72F0008F72F00088B
:103144008D3000089F300008F92F0008F92F00087F
:10315400F92F0008F92F0008F92F0008F92F0008AB
:10316400F92F0008F92F0008F92F0008F92F00089B
:10317400F92F0008F92F0008F92F000887300008FC
:1031840093300008012394E7022392E7032390E796
:1031940004238EE7114A136823EA0E03136097E7AA
:1031A4000E4A536823EA0E0353609AE70B4A936866
:1031B40023EA0E0393609DE7084AD36823EA0E03CB
:1031C400D360A0E702B070BD0000221000003110EF
:1031D40000100240000001400008014000040140CA
:1031E4008368194201D001207047002070470AB15A
:1031F40001617047090401617047C3685940C160A7
:103204007047000070B582B00446036813F0010FE4
:1032140036D03F4BDB6913F0805F49D13C4BDA6910
:1032240042F08052DA61DB6903F080530193019B21
:103234000125384B1B6813F4807F3BD0344B1B6A49
:1032440013F4407313D0626802F440729A420ED0B1
:103254002F4A136A23F440702F490126C1F84064B1
:103264000026C1F84064106213F0010F36D1284AD9
:10327400136A23F4407361680B431362002D3ED13B
:10328400236813F0020F06D0214A536823F4404305
:10329400A1680B435360236813F0100F34D01C4A09
:1032A400536823F4800361690B43536000202CE0CE
:1032B4000025BEE7174A136843F48073136000F0D7
:1032C4005FF80646134B1B6813F4807FB6D100F0F9
:1032D40057F8801B6428F5D9032016E000F050F855
:1032E40006460B4B1B6A13F0020FC0D100F048F8DE
:1032F400801B41F288339842F3D9032005E0D36957
:1033040023F08053D361BBE7002002B070BD00BF3F
:10331400001002400070004000004242704700006C
:1033240010B50446074B1868074BA3FB003080090F
:10333400FFF79AFD002221464FF0FF30FFF778FD9A
:10334400002010BD5C000020D34D621008B5074A70
:10335400136843F0100313600320FFF757FD0020A8
:10336400FFF7DEFFFFF7DAFF002008BD0020024070
:10337400024A136801331360704700BF68030020DA
:10338400014B1868704700BF6803002030B583B054
:103394000190FFF7F5FF0546019CB4F1FF3F00D013
:1033A4000134FFF7EDFF401BA042FAD303B030BD58
:1033B4007047000030B482B00022019290F82420BB
:1033C400012A00F08F800346012280F824204A68F5
:1033D400062A2DD80468606B02EB8202053A4FF08E
:1033E4001F0C0CFA02FC20EA0C000D6805FA02F22C
:1033F400024362630A68092A38D91C68E06802EB50
:1034040042021E3A4FF0070C0CFA02FC20EA0C00B0
:103414008D6805FA02F20243E2600A68103A012A52
:1034240034D90020002283F8242002B030BC704735
:103434000C2A0DD80568286B02EB8202233A1F245C
:10344400944020EA04000C68944020432863D1E7A8
:103454000568E86A02EB8202413A1F24944020EA9C
:1034640004000C6894402043E862C3E71C682069A8
:1034740002EB42024FF0070C0CFA02FC20EA0C00AB
:103484008D6805FA02F202432261C6E71A681648FB
:10349400824205D09A6A42F020029A620120C1E772
:1034A400906810F4000F1BD1906840F40000906005
:1034B4000A68102A01D00020B4E70C4A12680C49AB
:1034C400A1FB0212920C02EB82025200019202E072
:1034D400019A013A0192019A002AF9D10020A1E748
:1034E40000209FE70220A0E7002401405C000020A8
:1034F40083DE1B4330B583B00023019303689A68CD
:1035040012F0010F2ED104469A6842F001029A602B
:10351400164B1B68164AA2FB03239B0C019302E083
:10352400019B013B0193019B002BF9D1FFF728FF7D
:10353400054623689B6813F0010F11D1FFF720FFA4
:10354400431B022BF5D9A36A43F01003A362E36A79
:1035540043F00103E362002384F82430012002E0F5
:10356400002000E0002003B030BD00BF5C0000205C
:1035740083DE1B4390F82430012B68D010B5044639
:10358400012380F82430FFF7B5FF00285BD1A36A3C
:1035940023F4407323F0010343F48073A36223688C
:1035A4002C4A934227D0A26A22F48012A2625A685B
:1035B40012F4806F05D0A26A22F4405242F4805281
:1035C400A262A26A12F4805F2BD0E26A22F00602A1
:1035D400E262002284F824206FF002021A60236859
:1035E4009A6802F46022B2F5602F1DD09A6842F402
:1035F40080129A602AE0A2F58062526812F4702F59
:10360400D1D0A26A42F48012A262134A526812F420
:10361400806FD6D0A26A22F4405242F48052A26251
:10362400CFE70022E262D4E70A4A934204D09A68C0
:1036340042F4A0029A6009E0A2F58062526812F492
:10364400702FD3D1F3E7002384F8243010BD022077
:10365400704700BF002801400024014038B50368CA
:103664009A6812F0010F01D1002038BD04469A680F
:1036740022F001029A60FFF783FE054623689B68E7
:1036840013F0010F0ED0FFF77BFE431B022BF5D97D
:10369400A36A43F01003A362E36A43F00103E36205
:1036A4000120E2E70020E0E7002800F08680F8B57A
:1036B4000446836A002B50D02046FFF7CFFFA36A4D
:1036C40013F0100373D1002871D1A26A22F4885236
:1036D40022F0020242F00202A262626826683849BD
:1036E4008E4240D0E1690A43E16842EA4102A5689A
:1036F400B5F5807F02D0012D3CD01D466769012FAE
:103704003BD0716821F46941294371602568AE6832
:103714002C4931401143A960A168B1F5807F01D0E3
:10372400012902D12369013B1B052568E96A21F4BB
:1037340070010B43EB6223689968234B0B409A4258
:103744002CD0A36A23F0120343F01003A362E36AAC
:1037540043F00103E36201202EE0C36280F82430C9
:10376400FFF726FEA8E7E169B1F5402FBBD14FF47E
:103774000021B8E74FF48075C0E731B9A169013978
:1037840045EA413141F40065BBE7A16A41F02001FB
:10379400A162E16A41F00101E162B2E70023E36260
:1037A400A36A23F0030343F00103A36204E0A36AC2
:1037B40043F01003A3620120F8BD0120704700BF4D
:1037C400003C0140FDF7E1FFFE0E1FFF0268D368D5
:1037D40023F0C003D360202380F839307047026897
:1037E400D36823F49073D3600268536923F0010310
:1037F4005361202380F83A30704790F83930DBB2B7
:10380400212B01D0022070478368B3F5805F17D065
:10381400036A5A1C02621A7803685A60C38C9BB20A
:10382400013B9BB2C3844BB90268D36823F0800385
:10383400D3600268D36843F04003D360002070472C
:10384400036A1B880268C3F30803536003691BB946
:10385400036A02330362E1E7036A01330362DDE7CB
:103864002DE9F04104460268136923F44053C1680A
:103874000B4313618368026913434269134301686C
:10388400CA6822F4B05222F00C021343CB600268DF
:10389400536923F4407381690B4353610268574BA6
:1038A4009A4255D0FEF762FF00EB800000EB8000E7
:1038B40063689B00B0FBF3F5514FA7FB05356D0919
:1038C4002E01FEF753FF00EB800000EB80006368DD
:1038D4009B00B0FBF3F5FEF749FF00EB800000EB23
:1038E400800063689B00B0FBF3F0A7FB0030400945
:1038F4004FF0640808FB10531B013233A7FB03236A
:103904005B0903F0F003F518FEF730FF00EB8000CD
:1039140000EB800063689B00B0FBF3F6FEF726FF24
:1039240000EB800000EB800063689B00B0FBF3F0C9
:10393400A7FB0030400908FB10631B013233A7FBCF
:103944000373C3F3431322681D449560BDE8F081FB
:10395400FEF71CFF00EB800000EB800063689B0017
:10396400B0FBF3F5264FA7FB05356D092E01FEF7D5
:103974000DFF00EB800000EB800063689B00B0FB50
:10398400F3F5FEF703FF00EB800000EB80006368B3
:103994009B00B0FBF3F0A7FB003040094FF0640834
:1039A40008FB10531B013233A7FB03235B0903F00D
:1039B400F003F518FEF7EAFE00EB800000EB800050
:1039C40063689B00B0FBF3F6FEF7E0FE00EB8000BB
:1039D40000EB800063689B00B0FBF3F0A7FB0030B2
:1039E400400908FB10631B013233A7FB0373C3F3C5
:1039F400431322681D449560A8E700BF00380140C6
:103A04001F85EB5158B310B5044690F839300BB309
:103A1400242384F839302268D36823F40053D36014
:103A24002046FFF71DFF2268136923F490431361B6
:103A34002268536923F02A0353612268D36843F44C
:103A44000053D3600020E063202384F8393084F8E5
:103A54003A3010BD80F8383000F026FDD8E7012058
:103A64007047000038B5134690F83920D2B2202AA6
:103A740030D1044600292FD0002B2FD090F83820C5
:103A8400012A2DD0012280F8382001628384C38466
:103A94000025C563212280F83920026B1148906209
:103AA400226B1148D062226B10481063226B55635D
:103AB40022680432206B00F037FA23686FF040026A
:103AC4001A6084F838502268536943F080035361C4
:103AD400284600E0022038BD0120FCE70120FAE777
:103AE4000220F8E79F3B0008EB3B0008E13C00089C
:103AF40030B583B0044690F83A00C0B220283CD1D7
:103B040000293DD0002A3DD094F83830012B3BD019
:103B1400012384F83830A162A2850025E5632223BD
:103B240084F83A30636B19489862636B1848D8621A
:103B3400636B18481863636B5D63206813460A4619
:103B4400011D606B00F0F0F9019523681A68019279
:103B54005A680192019A84F83850DA6842F4807203
:103B6400DA602268536943F00103536122685369A0
:103B740043F040035361284600E0022003B030BD07
:103B84000120FBE70120F9E70220F7E7F73B0008F3
:103B9400D53C0008E13C0008704708B50346406A7C
:103BA4001B681B6813F0200F0CD10023C384026828
:103BB400536923F0800353610268D36843F04003E0
:103BC400D36008BDFFF7E8FFFBE708B50168CA68E2
:103BD40022F04002CA60202280F83920FFF7DCFF7F
:103BE400002008BD704708B5406AFFF7FBFF08BD19
:103BF400704708B50346406A1B681B6813F0200F22
:103C040013D10023C3850268D36823F48073D3607F
:103C14000268536923F0010353610268536923F076
:103C240040035361202380F83A30FFF7E1FF08BDD9
:103C340008B590F83A30DBB2222B46D18368B3F54D
:103C4400805F0FD003690BBB03685A68836A591CF1
:103C540081621A70C38D9BB2013B9BB2C385F3B1E1
:103C6400002008BD826A036943B903685B68C3F333
:103C740008031380836A02338362EBE703685B689B
:103C8400DBB21380836A01338362E3E703685B6812
:103C9400826A511C816203F07F031370DAE70268C1
:103CA400D36823F02003D3600268D36823F48073BD
:103CB400D3600268536923F001035361202380F821
:103CC4003A30FFF795FF0020CBE70220C9E77047A1
:103CD40008B5406AFFF7FBFF08BD704710B5446A9A
:103CE40023685A6994F83930DBB2212B10D0236849
:103CF4005A6902F0400294F83A30DBB2222B11D018
:103D0400E36B43F01003E3632046FFF7E6FF10BDC7
:103D140002F08002002AEAD00023E3842046FFF761
:103D240055FDE4E7002AEBD00023E3852046FFF7A6
:103D340056FDE5E710B5044602681368D168526978
:103D440013F00F0F08D113F0200F0BD011F0200F38
:103D540008D0FFF76DFF11E012F001020FD111F44A
:103D6400907F0CD113F0800F02D011F0800F65D139
:103D740013F0400F02D011F0400F63D110BD13F0C7
:103D8400010F06D011F4807F03D0E06B40F00100F6
:103D9400E06313F0040F04D01AB1E06B40F00200AA
:103DA400E06313F0020F04D01AB1E06B40F004009A
:103DB400E06313F0080F04D01AB1E26B42F008027A
:103DC400E263E26B002AD9D013F0200F02D011F085
:103DD400200F21D123685B6903F04003E26B12F0EA
:103DE400080F00D123B32046FFF7F9FC23685A6972
:103DF40012F0400F18D05A6922F040025A61636BE6
:103E040073B1124A5A63606B00F0C8F80028B5D049
:103E1400606B436B9847B1E72046FFF709FFD9E78A
:103E24002046FFF75AFFA9E72046FFF756FFA5E70C
:103E34002046FFF752FF0023E3639FE72046FFF786
:103E4400DCFC9BE72046FFF7C0FE97E7553E0008E1
:103E540008B5406A0023C385C384FFF73EFF08BD4D
:103E640030B40124056CAC40C56B6C6004686360BD
:103E74004368102B05D0036899600368DA6030BC8E
:103E8400704703689A600368D960F8E700283CD05B
:103E940010B4034601681E4A91422BD81D4A0A44B5
:103EA4001D48A0FB0202120992001A641B4ADA633D
:103EB400022283F8212008686FF30D105A689C6869
:103EC4002243DC6822431C6922435C6922439C69C7
:103ED4002243DC69224302430A6000209862D862CC
:103EE400186358639863012283F8212083F8200023
:103EF40010BC70470A4A0A440748A0FB0202120990
:103F040092001A64074ADA63D2E70120704700BFBF
:103F140007040240F8FFFDBFCDCCCCCC000002402A
:103F2400F8FBFDBF0004024038B5044690F82000B9
:103F3400012831D0012084F8200094F821000128C0
:103F440004D0002384F82030022038BD022084F8F5
:103F540021000020A0632568286820F00100286063
:103F64002046FFF77DFFE36A5BB12268136843F0E4
:103F74000E0313602268136843F0010313600020EA
:103F8400E3E72268136823F00403136022681368CC
:103F940043F00A031360EDE70220D6E708B590F872
:103FA4002130022B03D004238363012008BD02685F
:103FB400136823F00E0313600268136823F00103EF
:103FC400136003684B4A93424ED9783A934224D003
:103FD4001432934230D0143293422FD0143293428D
:103FE4002FD0143293422FD0143293422FD0143254
:103FF40093422FD002F5627293422ED01432934230
:104004002DD0143293422CD01432934202D04FF468
:10401400803203E04FF4805200E00122364B5A60B4
:10402400012380F82130002380F82030436B002BDB
:104034005ED098470020B9E71022EFE74FF4807272
:10404400ECE74FF48052E9E74FF48032E6E74FF4AF
:104054008012E3E74FF08072E0E70122DEE71022EE
:10406400DCE74FF48072D9E7244A934224D0143217
:10407400934225D01432934224D01432934224D054
:104084001432934224D01432934224D014329342F3
:1040940024D002F56272934223D01432934222D088
:1040A4001432934221D01432934202D04FF480321E
:1040B40003E04FF4805200E00122114B5A60AFE755
:1040C4001022FAE74FF48072F7E74FF48052F4E7D6
:1040D4004FF48032F1E74FF48012EEE74FF0807234
:1040E400EBE70122E9E71022E7E74FF48072E4E707
:1040F40000205BE780000240000402400800024008
:104104000000024038B5C36B1A6804682568016C66
:1041140004238B40134200F09B8015F0040F00F041
:104124009780236813F0200F03D1236823F004033E
:10413400236003689A4A934246D9783A934224D03A
:104144001432934228D01432934227D0143293422B
:1041540027D01432934227D01432934227D01432FA
:10416400934227D002F56272934226D014329342CE
:1041740025D01432934224D01432934202D04FF407
:10418400802203E04FF4804200E00422854B5A6011
:10419400C36A03B1984738BD4022F7E74FF4806201
:1041A400F4E74FF48042F1E74FF48022EEE74FF456
:1041B4008002EBE74FF08062E8E70422E6E7402262
:1041C400E4E74FF48062E1E7774A934224D0143263
:1041D400934225D01432934224D01432934224D0F3
:1041E4001432934224D01432934224D01432934292
:1041F40024D002F56272934223D01432934222D027
:104204001432934221D01432934202D04FF48022CC
:1042140003E04FF4804200E00422644B5A60B7E7A5
:104224004022FAE74FF48062F7E74FF48042F4E764
:104234004FF48022F1E74FF48002EEE74FF0806202
:10424400EBE70422E9E74022E7E74FF48062E4E782
:1042540002238B40134200F0AB8015F0020F00F0F4
:10426400A780236813F0200F06D1236823F00A03E4
:104274002360012380F821300368494A93424BD9D3
:10428400783A934224D0143293422DD0143293427C
:104294002CD0143293422CD0143293422CD01432AA
:1042A40093422CD0143293422CD002F56272934282
:1042B4002BD0143293422AD01432934229D0143290
:1042C400934202D04FF4003203E04FF4005200E076
:1042D4000222344B5A60002380F82030836A002B7A
:1042E4003FF459AF984756E72022F2E74FF40072A3
:1042F400EFE74FF40052ECE74FF40032E9E74FF4F4
:104304000012E6E74FF00072E3E70222E1E7202221
:10431400DFE74FF40072DCE7234A934224D01432DF
:10432400934225D01432934224D01432934224D0A1
:104334001432934224D01432934224D01432934240
:1043440024D002F56272934223D01432934222D0D5
:104354001432934221D01432934202D04FF40032EB
:1043640003E04FF4005200E00222104B5A60B2E71F
:104374002022FAE74FF40072F7E74FF40052F4E713
:104384004FF40032F1E74FF40012EEE74FF0007201
:10439400EBE70222E9E72022E7E74FF40072E4E7C3
:1043A4008000024000040240080002400000024075
:1043B40008238B4013423FF4EEAE15F0080F3FF490
:1043C400EAAE236823F00E032360026CC16B012361
:1043D40003FA02F24A60836380F82130002380F8F4
:1043E4002030036B002B3FF4D6AE9847D3E600BFD2
:1043F4000F4B1A6842F001021A6059680D4A0A40CC
:104404005A601A6822F0847222F480321A601A68A0
:1044140022F480221A605A6822F4FE025A604FF491
:104424001F029A60044B4FF000629A60704700BF0D
:10443400001002400000FFF800ED00E000B583B07A
:10444400164B5A6942F001025A615B6903F0010399
:104454000193019B002201210C20FEF7E9FC0C20B2
:10446400FEF7F6FC002201210D20FEF7E1FC0D20F1
:10447400FEF7EEFC0A480B4B03604FF4E133436054
:1044840000238360C36003610C2242618361C361C2
:10449400FFF7B8FA03B05DF804FB00BF0010024058
:1044A40090040020004800402DE9F04188B0044603
:1044B4000023049305930693079303685F4A93428A
:1044C40005D05F4A93425CD008B0BDE8F0815D4BF3
:1044D400DA6942F40032DA61DA6902F400320092F5
:1044E400009A9A6942F004029A619B6903F00403FA
:1044F4000193019B0423049302230593032307934D
:10450400514E04A93046FEF74FFD082304930025BD
:1045140005950127069704A93046FEF745FD4B4E45
:104524004B4B33607560B5604FF08008C6F80C8063
:10453400356175612023B361F5613046FFF7A6FC50
:1045440066637462434E444B336010237360B560FA
:10455400C6F80C8035617561B561F5613046FFF7C9
:1045640095FC266374622A4639462620FEF760FCD1
:104574002620FEF76DFC2268D36843F01003D36055
:10458400A2E7304BDA6942F48022DA61DA6902F494
:1045940080220292029A9A6942F008029A619B6907
:1045A40003F008030393039B4FF4806304930223F3
:1045B400059303230793294E04A93046FEF7F4FC20
:1045C4004FF400630493002505950127069704A979
:1045D4003046FEF7E9FC224E224B33607560B5602D
:1045E4004FF08008C6F80C80356175612023B361F3
:1045F400F5613046FFF74AFC666374621A4E1B4B42
:10460400336010237360B560C6F80C803561756142
:10461400B561F5613046FFF739FC266374622A46BA
:1046240039462720FEF704FC2720FEF711FC2268F8
:10463400D36843F01003D36046E700BF0044004052
:104644000048004000100240000801404C040020D3
:104654006C0002400804002080000240000C01406D
:10466400C403002030000240800300201C000240EC
:104674002DE9F04F89B0864B9A6942F004029A61A1
:104684009A6902F004020192019A9A6942F00802BE
:104694009A619A6902F008020292029A9A6942F0B7
:1046A40010029A619B6903F010030393039B4FF07C
:1046B4000009CDF81490CDF81890022707974FF011
:1046C400200ACDF810A0734E04A93046FEF76CFC06
:1046D4004023049304A93046FEF766FC4FF0800B98
:1046E400CDF810B004A93046FEF75EFC4FF48062AA
:1046F4000492694C04A92046FEF756FC4FF400636B
:10470400049304A92046FEF74FFC4FF4805504950A
:1047140004A92046FEF748FC4FF00108CDF81880A4
:10472400049505F1804505F5784504A92846FEF76A
:104734003BFCCDF81890049704A92846FEF734FCF6
:10474400CDF814804FF00409CDF8109004A9304638
:10475400FEF72AFC102104910DEB010001462846C6
:10476400FEF722FCCDF810A004A801462846FEF767
:104774001BFC03230593CDF8108004A801462046B2
:10478400FEF712FCCDF8108004A801462846FEF777
:104794000BFC082004900DF1100C61462046FEF736
:1047A40003FC04970DF1100C61462046FEF7FCFB58
:1047B4001021049169442046FEF7F6FBCDF810A0C1
:1047C40004A92046FEF7F0FBCDF8109004A920467A
:1047D400FEF7EAFB0820049004A92846FEF7E4FB50
:1047E400CDF8109004A92846FEF7DEFB0597402378
:1047F400049304A92046FEF7D7FBCDF810B004A912
:104804002046FEF7D1FB4FF48079CDF8109004A92F
:104814002046FEF7C9FBCDF810B004A92846FEF7E0
:10482400C3FBCDF8108004A93046FEF7BDFB049706
:1048340004A93046FEF7B8FBCDF8109004A9284629
:10484400FEF7B2FB4FF40073049304A92846FEF765
:10485400ABFB4FF48062049204A92846FEF7A4FB44
:104864004FF40053049304A93046FEF79DFB4FF424
:104874008043049304A93046FEF796FB4FF40043AB
:10488400049304A93046FEF78FFB09B0BDE8F08F0E
:1048940000100240000C0140001001402DE9F04FCF
:1048A40099B07B4B9A6942F400629A619A6902F466
:1048B40000620192019A9A6942F400529A619B69DA
:1048C40003F400530293029B724EDFF8CC91C6F8B6
:1048D4000090002474604FF0200AC6F808A04FF43A
:1048E400FA6BC6F80CB034617461B4613046FEF7FB
:1048F400CDF810231693179416A93046FEF7F8F94D
:1049040060230F931094119408271297139414940E
:104914004FF40072159222460FA93046FEF708F9AB
:1049240004220FA93046FEF703F93A460FA9304690
:10493400FEF7FEF84FF4006108914FF4806009908F
:104944000A9430250B950C940D940E940DEB0A0CDF
:1049540061463046FEF7A3F9504DDFF84481C5F8AF
:1049640000806C60C5F808A0C5F80CB02C616C61BF
:10497400AC612846FEF78AF8CDF858A08023179337
:104984000DF1580C61462846FEF7B2F9049405234C
:10499400039303A92846FEF70DF85023C8F82430E2
:1049A40060230F93109411941297139414944FF45A
:1049B4000072159222460DF13C0C61462846FEF722
:1049C400B7F804220DF13C0C61462846FEF7B0F816
:1049D4003A460DF13C0C61462846FEF7A9F84FF41F
:1049E400006108914FF4806009900A9430230B937E
:1049F4000C940D940E940DEB0A012846FEF74FF922
:104A0400D8F8443023F40043C8F84430D9F844308B
:104A140023F40043C9F8443021462846FEF704F93C
:104A240004212846FEF700F939462846FEF7FCF82B
:104A340021462846FEF721F904212846FEF71DF9F0
:104A440039462846FEF719F921463046FEF7ECF8B8
:104A540004213046FEF7E8F839463046FEF7E4F81C
:104A640021463046FEF709F904213046FEF705F9E0
:104A740039463046FEF701F92B6801221A63326881
:104A8400136843F00103136019B0BDE8F08F00BF51
:104A94000010024070050020002C01403005002069
:104AA400003401402DE9F04387B0434EB36943F429
:104AB4000073B361B36903F400730093009B3F4C2C
:104AC4003F4B23604FF48073A3600025E56065616C
:104AD4004FF44023E36165604FF00508C4F810808B
:104AE4002046FEF7E1FD374A536843F480235360C0
:104AF4004FF4C023059305A92046FEF723F9049536
:104B04000B2702974FF00109CDF80C9002A920461B
:104B1400FEF750FCCDF8109002950223039302A9EE
:104B24002046FEF747FC0E2302930323039302A9B6
:104B34002046FEF73FFC0C2302930423039302A9AF
:104B44002046FEF737FC0723049310230293CDF885
:104B54000C8002A92046FEF72DFC2268936843F4DA
:104B6400000343F480739360936843EA09039360FA
:104B7400736943EA09037361736903EA09030193DF
:104B8400019B114B9D60C3F80C80104A1A61104AB6
:104B94005A6140F6A2229A609A6842EA09029A602F
:104BA4002A4629463846FEF743F93846FEF750F9B7
:104BB40007B0BDE8F08300BF0010024000050020EC
:104BC4000024014000000140000002404C24014048
:104BD4006C030020F0B585B0274B9A6942F48062DB
:104BE4009A619B6903F480630093009B234C244BDC
:104BF40023604FF48073A3600025E56065614FF482
:104C04006023E3616560052626612046FEF74CFDBE
:104C140003950A2301930125029501A92046FEF775
:104C2400C9FB03950D2301930227029701A920468E
:104C3400FEF7C0FB0F2301930325029501A920462B
:104C4400FEF7B8FB0197042302930DEB0301204602
:104C5400FEF7B0FB0195029601A92046FEF7AAFBD8
:104C640023689A6842F480729A609A6842F001025A
:104C74009A6005B0F0BD00BF00100240D0040020CF
:104C84000028014070B5204C002384F8FB3084F8E0
:104C9400FA30022284F8F920012684F8FD6042F6F5
:104CA400E062A4F8CE204FF47A51A4F8DA1084F824
:104CB400FE304FF47A63A4F8D0304FF4C873A4F8EC
:104CC400CC30A4F8E010A4F8E220104D4FF4807228
:104CD40021462846FBF730FF85F8FA600C4804604B
:104CE4000C4BC3600C4B43600C4B83600C4C256035
:104CF4000C4BE3600C4B63600C4BA36003F0BAFDF8
:104D0400204603F0B7FD70BDE0000020F806002047
:104D1400D40800201808002008080020F807002004
:104D2400C40800204C0600203C0600202C0600206D
:104D34000C4B93F8FE301BB90B4B93F8FE3043B188
:104D44000A4B4FF47A721A80094B4FF618421A80B4
:104D54007047064B4FF47A721A80054B4FF618428F
:104D64001A807047E0000020F8060020200600208A
:104D74001E0600200268D36823F48073D36002689F
:104D8400536923F0010353617047000010B5084BC9
:104D940000221A70082405E0064B1C706420FEF7FC
:104DA400F5FA013C002CF7DA024B00221A7010BD10
:104DB4005409002056090020034B1870034B197046
:104DC400034B1A70704700BF540900205609002095
:104DD4005509002038B50025044B1D70044C207083
:104DE4004FF4FA70FEF7D2FA257038BD540900204A
:104DF4005609002038B50025044B1D70044C207062
:104E04006420FEF7C3FA257038BD00BF54090020A2
:104E14005609002038B50446002915DB4400E4B2E5
:104E240005E0E01CC0B2FFF7E5FF023CE4B2012C50
:104E3400F7D838BDE81CC0B2FFF7DCFF0235EDB28D
:104E4400B5EB440FF6DDF4E70225F9E70B4A00233E
:104E540013800B4BB3F908108BB2118009490989EF
:104E64005B1A1BB2138003EBD3735B101380002B0C
:104E7400B8BF5B42044A1380704700BF2606002077
:104E8400F80700202C0600202406002070470000AC
:104E940010B51A4B83FB00C44FEAE07ECEEBE41E50
:104EA40083FB02434FEAE27CCCEBE3139E451BD029
:104EB400124C84FB01C44FEAE17CCCEBE41C634557
:104EC40015D0904215DC8A4215DBE6450AD002244F
:104ED40064280ADD40F69A739A4206DC0220FFF742
:104EE40079FF02E00124F3E70024204610BD0024EA
:104EF400FBE70024F9E70024F7E700BF1F85EB5127
:104F04002DE9F04788B0FFF799FA854C402285498E
:104F14002046FEF7EDFD2046FFF72CFFFDF782F853
:104F240001F058FF0DF11E017F4B188801F02EFF90
:104F3400BDF81E2041F207139A4201D00025CFE0AC
:104F4400794E07A9708801F021FFBDF91C30774D17
:104F5400A5F8CE30764CA4F8CE3007A9B08801F07D
:104F640015FFBDF91C30A5F8DA30A4F8DA304FF09B
:104F7400000870E04FEAC804E31C6B4F07A937F838
:104F8400130001F003FF9DF81C30A4EB0802694DE7
:104F940005EB42052B71231D07A937F8130001F017
:104FA400F5FEBDF91C30EB80631D07A937F813002B
:104FB40001F0ECFEBDF91C302B81A31D07A937F8C5
:104FC400130001F0E3FEBDF91C306B81E31D07A95A
:104FD40037F8130001F0DAFE9DF81C30DFF8589121
:104FE400A4EB080609EB4606337108F1010A4FEAFF
:104FF400CA0307A937F8130001F0C8FEBDF91C3035
:10500400F38004F1090307A937F8130001F0BEFE89
:10501400BDF91C30338104F10A0307A937F81300E2
:1050240001F0B4FEBDF91C307381B5F90A20317961
:10503400B6F90600B6F9084004930394029001916E
:105044000092B5F90830B5F9062029793B48FCF7F8
:105054004FF85FFA8AF8B8F1010F8BD9FCF7F6FF25
:1050640008B0BDE8F087334E06EB4206B6F90A20D5
:10507400B6F90810B6F90600FFF70AFF307140E0F0
:105084002D4E06EB4206B6F90A20B6F90810B6F919
:105094000600FFF7FDFE3071C4EBC403254901EBA4
:1050A4004301B1F90A00244A02EB43031E79B3F920
:1050B4000670B3F90830C4EBC40402EB4402B2F93D
:1050C4000A2004920393029701960090B1F90830E4
:1050D400B1F9062009791948FCF70AF80135EDB24F
:1050E400012DBBD82C46C5EBC502124B03EB420382
:1050F40059790329B7D0C5EBC5020E4B03EB420324
:105104001971C4EBC4020C4B03EB42035979032914
:10511400B6D0C4EBC402084B03EB42031971BBE7DE
:1051240090040020DC05002068000020F806002020
:10513400E0000020AC00002090000020B0890008AE
:105144000379012B04D0022B17D00023438070472E
:10515400B0F90030B0F906C0A3EB0C0302FB03F373
:10516400B0F90A10A1EB0C0193FBF1F39A4202DBB4
:1051740023EAE3731AB24280704730B5B0F90030C5
:10518400B0F908C0B0F90CE0ACEB0E04A34206DDA4
:105194000CEB0E05AB4202DA0023438012E06345B8
:1051A40011DDF444A3EB0C0302FB03F3B0F90A1082
:1051B400A1EB0C0193FBF1F39A4202DB23EAE373C4
:1051C4001AB2428030BD1B1B01FB03F3B0F9062069
:1051D400121B93FBF2F3002B02DD00214180F1E767
:1051E4009942B8BF194609B2F8E70000124B1B7880
:1051F40073B9124AB2F80EC0C3EBC30041001048A1
:1052040020F801C0508AC3EBC3014A000D498852FB
:10521400012B00D070470C4AB2F906C0C3EBC3009F
:105224004100074820F801C0B2F90810C3EBC303DA
:105234005A00044B9952EDE7290600206C03002024
:10524400AC00002090000020CC05002008B5434BA2
:105254001B78002B36D14249C3EBC30042008818A7
:10526400895EB0F90620C83A91421FDBC3EBC30242
:1052740050003B4A0244B2F90A20C832914215DC7C
:105284003849C3EBC30042008818895EB0F9062090
:10529400C83A91420ADBB0F90A30C833994205DCB6
:1052A4000023314A1370314A13800BE02F4A1388CC
:1052B400591C1180632B05D92B4B01221A702B4BDF
:1052C40064221A802A4A1388591C11809F2B2AD9D8
:1052D400284B01221A70264BA0221A801F4B002251
:1052E4001A70214B1B782BB9234B1B7813B9234B12
:1052F4001B782BB30022224B1A70184B1B78C3EB7C
:10530400C3014800164901444A80164B03445A809D
:10531400124B1B7813B11B4A1278B2B113B9194B53
:105324001B78B3B908BD184B5B8913F4807F03D095
:105334000A4B01221A70D4E7084B00221A70D0E7F6
:10534400124B1A780E4B1A70E2E70820FFF752FD51
:10535400E8E71220FFF74EFDE4E700BF290600202E
:10536400AC000020900000202306002064000020F0
:1053740062000020DA05002022060020B00500208B
:105384008E00002028060020CC0500208F0000207D
:1053940070B5FFF72BFF1E4C23781E4E1E4DC3EB3A
:1053A400C3035800B6F90020B5F900101B4B18448C
:1053B400FFF7C6FE2378C3EBC3035800B6F90020F9
:1053C400B5F90010164B1844FFF7BAFEFFF73EFF7D
:1053D40023786BB9C3EBC3035A00104B1344B3F9DE
:1053E4000230322BD4BF002301230E4A137070BD48
:1053F400C3EBC3035A000A4B1344B3F9023013F14D
:10540400320FACBF00230123064A1370EFE700BF3D
:1054140029060020200600201E060020AC000020E3
:1054240090000020B805002003884AF6CD3C63456F
:1054340000D070471BB2B0F902C083EA0C03B0F984
:1054440004C083EA0C03B0F906C083EA0C03B0F984
:1054540008C083EA0C03B0F80AC08CEA03039BB2C9
:10546400B0F80CC09C45E4D100B5D0F800E0D0F809
:1054740004C08368C1F800E0C1F804C08B6083896C
:105484008B81022A01D0032A01D05DF804FB00239A
:10549400024A1380024A1370F7E700BF620000203B
:1054A400DA05002070B5214B5B6B1B685C68C4F1A6
:1054B40040041F4B1B68A34208D002D2E21A0E2AF2
:1054C40009D0C3F140052A190E2A18D0184B1C60C4
:1054D400402C28D070BD174A03EB020C164E3546FB
:1054E400D058DCF80410DCF8082007C5BCF80C30F0
:1054F4002B80032211493046FFF796FFE6E72A4640
:105504000C4919440C48FBF717FB2CB903220B492F
:105514000948FFF789FFD9E7224606490648284487
:10552400FBF70AFBF2E700221A60D3E7900400209D
:10553400B4050020DC050020BC050020CC050020BB
:105544005B4B1B78002B51D0037843F008030370A6
:10555400584B1B786BB1584B1A68584BA3FB02137A
:105564001B09322101FB13231BB9037883F01003B9
:105574000370534B1B78002B48D0037843F010037F
:1055840003704D4B1A684F4BA3FB02139B0903EBAB
:105594008303B2EB031F0AD14B4BB3F9003040F243
:1055A400F14293423BDC037823F007030370474B3B
:1055B4009B7913B9464B9B7943B1037843F00102BD
:1055C400027023F0060343F001030370414B1B7880
:1055D40013B9414B1B7843B1037843F004020270C2
:1055E40023F0030343F0040303707047324B1A683B
:1055F400344BA3FB02131B0903EB8303B2EB830FAE
:10560400A6D1037883F008030370A1E7294B1B7824
:10561400002BB6D1037823F010030370B1E740F2F6
:105624002252934207DC037883F00103037023F0D2
:1056340006030370BBE7B3F5A96F09DA037843F0F7
:105644000102027023F0060343F001030370AEE786
:1056540040F26D52934207DC037883F00403037035
:1056640023F003030370A2E740F29352934209DC50
:10567400037843F00402027023F0030343F00403AD
:10568400037094E7B3F5B76F07DC037883F0020384
:10569400037023F00503037089E7037843F00202E3
:1056A400027023F0050343F0020303707FE700BF99
:1056B4004D09002048090020440900201F85EB51B2
:1056C400B8050020CDCCCCCCD0000020F8070020B9
:1056D4002C060020230600202206002038B50446AC
:1056E400684B5D89684B1A78012A07D010F00100D5
:1056F4001ED0664B1B784BB300231AE0C5F341233D
:10570400023363490B70022B0ED0614B19785F4B47
:105714001B785B1A18BF01235E480078824200D0D0
:1057240013465A48017007E0C5F3C1230B70ECE738
:105734000023DBB25549087013B3554B187804287D
:1057440010D8DFE800F0052A343F47000123F0E7D2
:105754000223514981F8F930504981F8F930504B0E
:10576400012119704B4B1B789A423BD0484A13785D
:105774000133DBB21370042B02D9134600221A70D2
:10578400414B1B78012B33D014F0020442D0454B1B
:105794001B78002B52D000233DE002233E4981F8C0
:1057A400F9303E4981F8F9303D490B70DAE70223BC
:1057B400394981F8F930394981F8F930384B0321F6
:1057C4001970CFE70123344981F8F930334981F85E
:1057D400F930C7E70023304981F8F9302F4981F8BF
:1057E400F930BFE701300121C0B2FFF713FBBDE779
:1057F400C5F340352C4A15702A4A1278521B18BF3B
:105804000122244909788B4202D0264A157005E00A
:105814001346FAE70023DBB2224A14704BB3224B3F
:105824001B786BB1012B14D101231C4A82F8FE3082
:10583400194A82F8FE30FFF77BFA0AE00123EAE70F
:105844000023164A82F8FE30134A82F8FE30FFF72E
:105854006FFA0D4B1A780F4B1B789A420AD0124AF2
:1058640013780133DBB21370012B02D913460022E3
:105874001A7038BD0C4B187801300121C0B2FFF703
:10588400C9FAECE7CC05002029060020B205002067
:10589400B305002028060020F8060020E0000020C0
:1058A4008F000020B1050020600000202DE9F8439E
:1058B400384B1B781BB9384B1B78002B68D0FCF78E
:1058C400B1FB364C41F20711208801F00DFC344D38
:1058D400B5F9CE1089B2608801F006FCB5F9DA108A
:1058E40089B2A08801F000FC00264DE0F400E01C21
:1058F400A21B53002B4F1F44284D397935F8100053
:1059040001F0F2FB231DB7F9061089B235F8130034
:1059140001F0EAFB631DB7F9081089B235F81300EA
:1059240001F0E2FBA31DB7F90A1089B235F81300A0
:1059340001F0DAFBE21DDFF87080A31B5F0047442F
:10594400397935F8120001F0CFFB06F101094FEA6D
:10595400C903B7F9061089B235F8130001F0C4FB86
:1059640004F10903B7F9081089B235F8130001F0FE
:10597400BBFB04F10A02B7F90A1089B235F8120028
:1059840001F0B2FB5FFA89F6012EAFD9FCF75EFB9A
:10599400BDE8F8831C0600201D06002068000020D6
:1059A400E0000020AC0000209000002010B500248E
:1059B4000B4B1C700B4B1C700B4B1C7005E00B4B02
:1059C4001C706420FDF7E2FC0134072CF7DDFFF7BF
:1059D4006DFF002220210648FDF709FCFEE700BF09
:1059E4004D090020540900205509002056090020C3
:1059F4000008014010B414682313C3EB00134FEAEA
:105A0400E37CA1FB033001FB0C011B0943EA017396
:105A14000911B3F1004F71F1000008DA1846B3F12F
:105A2400004F71F1FF3104DA4FF0004001E06FF0F4
:105A340000400444146010BC704700002DE9F04F8E
:105A440085B0FFF703FA564BB3F90030052B02DD9E
:105A540005B0BDE8F08FFFF7C9FB524B1B78C3EBD1
:105A6400C301514A32F91120120403924F4A32F908
:105A7400112012040292002B00F08E800023019367
:105A84000025DFF82C812E4647F6FF79C2462F46C3
:105A9400CB462CE0FFF7AAFB424D2B78C3EBC303A4
:105AA40003AA41F69911404830F91300FFF7A2FF09
:105AB4002B78C3EBC30302AA41F699113B4830F992
:105AC4001300FFF797FFBDF90E70BDF90A60BB45DF
